:020000040800F2
:104000000007002061710008ED530008DD5300082F
:10401000E1530008E5530008E953000800000000E0
:10402000000000000000000000000000F153000844
:10403000F553000800000000F9530008FD53000884
:10404000A9710008A9710008A9710008A9710008E8
:10405000A9710008A9710008A9710008A9710008D8
:10406000A9710008A9710008A9710008A9710008C8
:10407000A9710008A9710008A9710008A9710008B8
:10408000A9710008A9710008A9710008A9710008A8
:10409000A9710008A9710008A9710008A971000898
:1040A000A971000881540008A9710008A9710008CD
:1040B000A9710008A9710008A9710008A971000878
:1040C000A9710008A9710008A9710008A971000868
:1040D000A9710008A9710008A9710008A971000858
:1040E000A9710008A9710008A9710008000000006A
:1040F00000000000000000000000000000000000C0
:1041000000000000000000005FF808F1F0B4244F48
:10411000064600F120054FF01B0C3C460FCC3060EA
:104120007160B260F3600FCC3446F361306171614D
:10413000B261002314F8012B1344AC429BB2F9D1B5
:104140003A8C798C9A4223D0164B243F9F420CF133
:10415000FF3CE2D1002206F10C03A6F8442043F80C
:10416000042B43F8042B43F8042B0F4F43F8042B84
:104170004FF6FF7545F2AD0448F24C106FF446510E
:104180001A60B76035607460F0603161F0BC7047F0
:104190006145D9D10CF1010CA6F844C0F0BC7047C0
:1041A000CCFF0108DCFB010855DBFFFF826A036CD2
:1041B0002DE9F0479918D31A0FBF83684FF0C062FA
:1041C00092FBF3F38360334D03EB4303B0F84440B9
:1041D00003EBC30285FB023504EBC4042E4B0646F9
:1041E0004910A4002D4F4160D217C06A316A2344A0
:1041F000C2EBE502BB423261F0603160354632D934
:104200000023A6F8443002F079FC254802F0B6FC01
:10421000DFF89880DFF888A0A7F2DF375446C4EBB8
:1042200006090AF1200A204659F80410043402F065
:10423000C7FC5445F7D106F12002002115F8013BD7
:104240001944954289B2F9D1384602F0E9FC40465A
:10425000B6F8441002F0E4FCB6F844300133A6F896
:104260004430BDE8F08702F049FC0E4B0C48234473
:1042700023F47F7323F0030304F1006A83420AF5F9
:10428000FE3A01D002F07AFCDFF82080064FA0440D
:104290002744C3E76766666624FC0108FFFF010840
:1042A00000FC0108FFFB010820FC010822FC0108BA
:1042B000B0F85C21034602F15F008AB2801A80B236
:1042C000BE2817D9A2F5905212B2002AB8BF02F246
:1042D000FF125212A3F85C110DD410490B2AA8BF8B
:1042E0000B2212B203F5BE7301EBC20292E8030087
:1042F00083E803007047524211B208480B29A8BF57
:104300000B2100EBC10103F5BE7203C982E8030073
:10431000C3F87C11C3F88001704700BF40720008E9
:1043200090F87B112DE9F84301220023044680F820
:10433000EC20C0F8542180F8ED30C0F86C31002931
:1043400074D14FF410530022A4F85A31C4F86422F7
:1043500004F5CE7304F50772002143F8041B9A425A
:10436000FAD104F51073002142F8041B9342FAD1EC
:1043700004F51971002243F8042B9942FAD1104632
:1043800004F1C00504F1600603193118994206D002
:1043900000221A805A801A7106338B42F8D12B46BC
:1043A00005F11001002203F8012B9942FAD1603087
:1043B000C02801D00D46E7E72748284E00210022FB
:1043C0000023012504F51C7904F51A7804F5207CF6
:1043D00004F51E77C4F8E450C4F8E010C4F8E810FF
:1043E000A4F85E11A4F86011C4F86411A4F868116F
:1043F000A4F8F010A4F8EE1084F88812C9E900239C
:10440000C8E90023CCE90023C7E9002384F87B1125
:10441000C4F87C51C4F88051C4F88461C4F87001B8
:10442000C4F89001C4F89401BDE8F8834FF4F0514A
:10443000FFF73EFF94F8ED20A2EB02135B029BB264
:1044400003F5F051022A03F5105389B29BB27FF4B1
:104450007AAF8BB277E700BFE02D900000DC05005B
:10446000002930B44FF000030EDA01F5C06109B243
:10447000013B00299BB2F8DBB1F5C06F07DBA1F56A
:10448000C061013309B29BB2B1F5C06FF7DA0C110C
:104490000C4A651C52F8255052F8242001F00F01F7
:1044A000AC1A01FB04F130BCD0F8540102EB11123C
:1044B00000FB02F01BB2002BB6BF5B429840D84015
:1044C000704700BFE44E0108214AD0F8543100295A
:1044D00008BF0121D2F87C01B1FBF3F39842F0B49C
:1044E00012684FF000040BD25B0804F5C0649842D8
:1044F000A4B2F9D39A4205D9A4F5C0645B00A4B272
:104500009A42F9D8124F61253846691050F8212097
:1045100000EB8106934205D911E050F822509D42EC
:104520000FD311464A10002900EB8206F5DCC01BB0
:1045300024B2801004EB001000B2F0BC70470A46B1
:1045400029468A1A551E002D06F10400DDDCEEE72F
:10455000E44E0108D0F85431012B05D95B0801F570
:10456000C061012B09B2F9D8002A02DD4FF4803076
:10457000704712F5804F0CDC02F5004202EBC202DC
:10458000A1F5905101EB221000F5004020EAE07007
:104590007047C1F5DC4302F5804202FB03F001F5F0
:1045A000905101EBA03000F5004020EAE070704728
:1045B0002DE9F00FBDF920006FF04B0420EAE07008
:1045C000002A04FB00F4BCBFD24312B201F5C06163
:1045D000002BB8BFDB4309B2B8BF1BB221EAE171BF
:1045E000394D6FF0650A64110AFB02FA03FB00F90A
:1045F00001FB00F6A3EB031704F5763405FB01FB82
:1046000001FB03FC02FB00F547F31A179B3402FB86
:1046100003F83C4401FB02F704EB6A144FEA294912
:104620004FF0DB0A361404EB6B14C9EB49190AFB93
:1046300006F62D1400FB00F04FEA2C4C4FF0320A26
:1046400002FB02F204EB691405EB45054FEA28482A
:104650000AFB0CFC3F1401FB01F140F2A91904EB29
:10466000E504C8EBC80809FB07F704EB2818001499
:1046700008EB661603FB03F312146FF00A0B06EB4C
:104680006C16091400EB40050BFB02F24FF4427468
:1046900006EB671600EB850004FB01F106EB6010EA
:1046A00000EB635303EB621313EB611007D4BDE817
:1046B000F00F47F6FF739842A8BF184670470020D6
:1046C000BDE8F00F704700BF68FDFFFF2DE9F04F18
:1046D000B0F9685187B00F461446B0F95A112A460E
:1046E0000190FFF737FF694AC11152F8213002EB00
:1046F0008102B2F806A01B0C00F07F00C3EB0A0A8F
:1047000000FB0AFA002D03EBEA1A40F3AA80019895
:10471000B0F96A3103FB05F5ED13C5EB4513C5EBA5
:1047200083239B1303F500630093019B04F1FF3B7C
:10473000D3F86882D3F87092D3F878C2D3F8806245
:10474000002C00F09380063733463A462E465F46EB
:10475000654693469C463BF9043C3BF8061C5B1BB4
:104760000AFB03F305EBE335CCEB05030AFB03F38C
:104770000CEBE33C009BC8EB01010CFB03F20AFBD2
:1047800001F1434C02F10042900D34F810300291D7
:10479000A11C31F9104018B2201A029CC2F38F12EA
:1047A00008EBE43802FB00F2C9EB08010AFB01F157
:1047B00003EB224212B209EBE1390098CCEB020282
:1047C0004FEA490306FB02F200FB03F10CEBE23275
:1047D000304C2BF8042C880D34F81020023434F9B6
:1047E0001000C1F38F110290029C10B2201A01FB3D
:1047F00000F102EB214212B2C3EB420206FB02F2CD
:1048000048464FEAE971013F03EBE233CDE9040189
:104810007C1C40464FEAE8712BF8063CCDE90201CA
:104820000BF1060B62464FEAEC7328464FEAE5713E
:1048300091D1019C04F51A7804F51C7C04F51E77CF
:1048400004F52076DDE90245C8E90045DDE90445C7
:10485000CCE90045C7E90001C6E9002307B0BDE87F
:10486000F08F4FF40061002500915EE748464FEA63
:10487000E97144464FEAE875CDE90401CDE9024506
:1048800060464FEAEC713246F317D2E7C0EA0008FF
:10489000CC040108A07200082DE9F04F90F87BE1EC
:1048A00095B08446079117461E46B0F8EE80B0F8E2
:1048B000F05090F8F240BEF1000F40F0AF82B0F936
:1048C0005AB1BBF1000FC0F2C482BBF5705FC4BF28
:1048D0004FF4705BA0F85AB160465946CDF810C04D
:1048E000FFF7BEFDDDF810C00690CCF87001CCF8E3
:1048F0009001CCF89401BCF96091BCF95EA1BCF9BF
:10490000680159464A46534600906046CDF810C0AB
:10491000FFF74EFE80B203B203FB0AF3DB13A3F5ED
:1049200000431FFA83FADDF810C04FEAAA31504A5B
:1049300009F5004301F10109ACF86A0152F82900B8
:104940004FEA8A0A0A9006981B041FFA8AFA8342E1
:10495000CDF838A0DDF81890DDF81CA028BFC0EB1A
:1049600003034B4528BF9946B24452F821204FEA31
:104970005910DCF86C11CDF830A0CDF848901390A8
:10498000DDF81C900C98099205919CF87A21DCF8CE
:104990009412DCF88C3281450F9207F1060B0891D6
:1049A0009A464DD0DCF88401079F421CCCF8842144
:1049B00017F8016B079716F0010706D1F10640F1D1
:1049C000728101238CF8883205979CF87B314BB3B8
:1049D000330740F16381DCF88811DCF88031013164
:1049E0009942CCF88811C0F05981224B002198429D
:1049F000CCF8881140F2FE81DCF89421DCF88C318F
:104A00000021CCF88411DCF890110598521A01EBC2
:104A100022221344191A02EB6131CCF88C31069131
:104A2000CCF8902147B32BF8068C2BF8045C0BF8DC
:104A3000024CDDF81C900C980BF1060B8145B1D1AE
:104A4000ACF8F0508CF8F2400599069C0F9D089E3A
:104A5000ACF8EE80CCF86C11CCF870418CF87A513F
:104A6000CCF88CA2CCF8946215B0BDE8F08F00BFF2
:104A700000000020FEDB05009CF8EC1002290B91E1
:104A800000F086810D97089C139D6309069EC3EB79
:104A900043132B447200934203D3D2439A4228BF5C
:104AA0001A46B2F5803FC0F06481CF494FF0FF3322
:104AB0008A4228BF0A460892089FD243120C3E0C35
:104AC000B3FBF2F2B3FBF6F311461C46059D069EBE
:104AD000B54280F0F5802144B20C02FB01F2340CA7
:104AE000B5FBF4F44FF6FE70012584424FEA923292
:104AF0008CF8905200F25C81C4F57F45FF35640864
:104B00006D0804FB04F105FB05F00914001401FB1A
:104B100001F600FB00F701EB4101C4F5405404EB42
:104B20006104C5F5405500EB400005EB6005A4EBC2
:104B30002644A5EB274504FB02F405FB02F12414EF
:104B40000AEB21411194059F3E0C06FB03F6360C3F
:104B500081F310014810A0F5004080B242114FEAE5
:104B60004208DDF824A008F102083AF908A04B1128
:104B7000DDF82890099C5F00CDF840A0DDF824A066
:104B8000023734F8125039F9088039F8122034F815
:104B9000134039F813303AF90790DDF828A000F0F7
:104BA0001F003AF907700FFA85FA0397109F01F07A
:104BB0001F01CAEB070A00FB0AFA05EB6A150FFA98
:104BC00084FACAEB090901FB09F904EB69140FFA2D
:104BD00082F9C9EB0808DDF80C9008FB00F00FFA29
:104BE00083F8C8EB090707FB01F7A4B203EB6717CB
:104BF0000FFA84FA3FB2ADB202EB6010CAEB0707BE
:104C0000DDF838A02BB200B2C01A0AFB07F700FB90
:104C10000AF004EB27440B9905EB2040059AA5B256
:104C20000F9B129C0129DDF844A018BF0023A2426B
:104C3000B2441FFA80F89CF8882224D3012432BBA6
:104C40006A4B069E9E428CBF01233023013BCCF869
:104C5000983144F002042BF8068C2BF8045C0BF816
:104C6000024C9CF888320D9F002B00F08B80002FA7
:104C70007FF4DFAE0598069E801934BF0027012718
:104C800005900F97D5E6002A00F09C800024002BA9
:104C9000D6D1DCF89831002BDDD0D7E7DCF89421B1
:104CA000DCF88C31AFE69CF8EC30012B3FF48DAE94
:104CB0000F9900293FF489AE8CF88872059784E635
:104CC000059F089E9CF89052B7422CBF00200120FF
:104CD000854200F08480069F2144BC0C04FB01F156
:104CE000059C4FF6FE75C6EB04083C0CB8FBF4F8C7
:104CF000A8458CF890024FEA913165D8C8F57F46F7
:104D00004FEA580808FB08F9FF36760806FB06F458
:104D10004FEA294909FB09F5241404EB4407C8F5B7
:104D2000405809EB490904FB04F408EB6908C6F58F
:104D30004056A8EB254808FB01F806EB6706A6EBF2
:104D4000244404FB01F14FEA2848C8F10008AAEB0B
:104D50002141CDF8448000287FF4F5AE0598089BEA
:104D6000C61A360C02FB06F6360CC6F57F46FF3631
:104D7000EEE61F494FF0FF344FF480300A462346D9
:104D80000890A3E6002F7FF454AE0D9DA84650E690
:104D9000059A002ABFF676AE06F00206002E18BF6E
:104DA0004FF000420CBF0023012305920D936AE6E9
:104DB00002EB420242F30F114FF000095144CDF8CB
:104DC0004490C0E601243BE701EB410141F30F11A0
:104DD000C1EB0A014FF0000ACDF844A0BBE7002563
:104DE00051461195B7E700BF0000FFFFA9AAAA022C
:104DF000020001004FF0FF31DCF87C31B1FBF2F230
:104E0000A2FB03234FF000500021994208BF9042BB
:104E100038BF0246CCF894210023F1E5D0F8709118
:104E200004904946FFF750FB0028DDF810C014DB62
:104E3000B0F5705F06DD4FF4705BCDF81890ACF8FC
:104E40005AB158E5ACF85A01CDF818900FFA80FB2A
:104E500051E5A0F85AE1F3463EE54FF0000BCDF8DE
:104E60001890ACF85AB146E52DE9F04F90F87B4127
:104E700095B08346059115461E46002C00F003822E
:104E8000D0F870412146FFF71FFB0994ABF85A0197
:104E9000BBF85E415149A4F50044C4F38D0404EB12
:104EA0004404A4B26013E7004FF480541294AC1D84
:104EB000059D831D3544053051F823300C9551F87C
:104EC00020104FF480566FF00045BFB21396109536
:104ED0000C9E059DBBF8EEA0BBF8F0900D970A91D3
:104EE000DBF86C719BF87A01DBF8641147F6FF720E
:104EF0000B93B5424FF00043ABF86A21D4469BF8C0
:104F0000F220CA460797089004910693A1464ED016
:104F1000DBF88441059F01340498BBF96031CBF87C
:104F2000844117F8016B1B1A00EB231016F00103E4
:104F300005970396049006D1F00640F18181012186
:104F40008BF888120793039D290723D59BF87B11C3
:104F500001B3FCB122498C4200F29281B4F5F07F9A
:104F600080F0A481DBF88011DBF87C5101FB04F1B7
:104F70004FF0FF30B0FBF1F0A0FB05014FF0005403
:104F800000258D4208BF844238BF20460990002189
:104F9000CBF8841133B329F806CC29F804AC09F80E
:104FA000022C059D0C9E09F10609B542B0D18BF883
:104FB000F220079F0999089A049BD146ABF8EEC0EE
:104FC000ABF8F090CBF86C71CBF870118BF87A21BC
:104FD000CBF8643115B0BDE8F08F00BF00000020B1
:104FE000FFDB0500049FDDF840C0674521D0AD4BD5
:104FF000A7F5004292B21112981C33F8113030F824
:105000001110D2B2C91A02FB01F203EB22239BB2A8
:10501000012B40F22E814FF00062C3F58031B2FBCC
:10502000F3F0B2FBF1F1129013911B040693049B71
:105030001093079C069DAC4200F2DC809BF8EC10BC
:10504000129E4FEA143A02290AFB06FA00F0058183
:105050004FEA1A454FEADA336F11C3F34A127F0061
:105060005200002405F01F0507F10208CDF83CA00E
:1050700003F01F03961C1194DDF828C03CF807408C
:105080003CF80200DDF82CC03CF807A00A9F3CF871
:10509000022037F908703CF908800297DDF808C053
:1050A00027B2C7EB0C07DDF828C0CDF838803CF9F3
:1050B0000680DDF82CC005FB07F73CF9066004EB21
:1050C0006714029606B2C6EB080603FB06F60196C5
:1050D0000E9E0FFA8AF8C8EB0608029E05FB08F53B
:1050E0000FFA82F8C8EB060C03FB0CFC019FA4B27C
:1050F00000EB67100AEB651580B202EB6C1227B269
:1051000006B2DDF834C02DB212B2ED1B921B0CFBBF
:1051100005F502FB0CF204EB254400EB22400F9A4C
:10512000099B1FFA84FC069C80B2002AB8BF40424B
:10513000A34288BF069B099D98BFC3EB0403089E4A
:10514000079FAB4238BF2B46012918BF00269F425C
:105150001FFA80FA08969BF8883247D2002B2BD092
:10516000119A089848BBDBF89831002B2BD1069B8D
:10517000002B31D00399119C01F01003DBB2002CFD
:1051800000F0D7800BB9089D0DB102F0FE0229F89E
:1051900006CC29F804AC09F8022C9BF888321BB322
:1051A000119E002E62D1079F09997F1834BF0023FA
:1051B000012307970893F4E601223B4B0999994292
:1051C0008CBF01233023013BCBF89831069B42F082
:1051D0000202D2B2002BCDD1039C42F0010204F0B6
:1051E0001003D2B2DBB2CDE70893DAE60122002B3E
:1051F000B7D1E2E7079F06981399C0EB070A4FEA79
:105200001A3A01FB0AFA9BF8EC100AF1004A02294B
:105210007FF41EAF039CA30741D5069F00230137EF
:1052200002264FF0004C012007971A461D463146D2
:1052300040F602084FF40067CDF83CC011901BE720
:105240009BF8EC1001293FF47EAE089900293FF449
:105250007AAE8BF88832079375E6079A069B9A42D6
:10526000FFF4F6AE039CA307D7D418E000240894FB
:1052700097E64FF000614FF4006212911392D4E66A
:105280000026079683E6B0F95A11FFF7E9F8CBF844
:105290007001CBF89001CBF894010990F8E5022158
:1052A000D6E600BFC4F20008A9AAAA02DBF864820D
:1052B00000260BEB8801C1F89C410BF510753146B7
:1052C00055F8040B55F8287C001B0028B8BF404255
:1052D000C01B0028CCBF07EB600007EBE00008F123
:1052E00021077F1A07F01F0745F8280C0BEB8707EB
:1052F000C1B1D7F89C7145F8047C0BEB8607D7F851
:105300001C728742C8BF0E4601310929D8D108F165
:1053100001010BEB860601F01F01D6F84042CBF8E5
:1053200064121FE6DBF8407227447F10CBF840720E
:10533000E3E729F806CC29F804AC09F8022C9BF81D
:105340008832002B7FF42FAF91E700BF826801689D
:1053500002EB42035B002DE9F001CC5C0B447CB90D
:105360004568598801329B88AA4282604161836105
:10537000C1600361C46100D38460BDE8F00170477F
:105380005D88C768C169C7EB050C01FB0CFC93F88D
:1053900001809C8806699CFBF8FCC6EB0408BC44B1
:1053A00008FB01F7C0F814C093F801C0013197FB66
:1053B000FCF73E448661C1615B789942DDDD41685E
:1053C000013200238A42826045618461C5600461C4
:1053D000C36128BF8360BDE8F0017047FEE700BFEE
:1053E000FEE700BFFEE700BFFEE700BF704700BF5B
:1053F000704700BF704700BF704700BF1C4B10B51F
:1054000093F8A830042B04D0BDE81040184800F0F1
:1054100057BC184B9A6892B282F002031105C3F38D
:1054200040035CBF43F00203DBB25405124C58BF8B
:1054300043F004032278500703D4590748BF43F0D0
:10544000080390070ED4990701D543F010030848CC
:1054500019460A4A237000F0D7FBBDE81040044803
:1054600000F02EBC9A07F2D443F02003EFE700BF10
:10547000B8090020000C0140800A0020A809002083
:105480002DE9F84FA448012101F05AFE08B9BDE802
:10549000F88FA24C0121A04801F05EFEA04B2179BB
:1054A0004FF480521A615A61002959D12188A3F51D
:1054B00054430A1242F480529A819A4B1A89D207B5
:1054C000FBD5994A090292F8A82089B20120042A42
:1054D0009981207100F08F80032AD8D0934A1368F5
:1054E00001335C071360D2D1914A924B14895089E1
:1054F0009189D3F83490D3F83880D3F83CC09F6AB0
:10550000DE6A1D6BB2F802B0B2F804A0C4F5FF4425
:10551000C0F5FF40C1F5FF41D2887F34C9EBC9090E
:105520007F30C8EBC8087F31CCEBCC0C07EB4707CA
:1055300006EB4606C5EB05154C44404461445F4408
:1055400056442A44E410C010C910BF10B6101211FE
:105550005C639863D9639F62DE621A63BDE8F88F6B
:105560006188704B0A1242F410529A816D4B1A896D
:10557000D707FBD56C4D090295F8A82089B2002009
:10558000042A9981207165491DD0032A00F0BA8050
:10559000694B6A491E68D1F854710136BE421E60DB
:1055A0002BD2644B62491A6A0988C2EB0212114479
:1055B0001A680911521A5A621F2A19625D4BDCBF20
:1055C00000225A628AE75E48026802F1881303F5F6
:1055D00008430360002B4FEA12425A4B0A804A806C
:1055E0004FF480514FF40062B5BF596119615A619F
:1055F0001A61BDE8F88FBDE8F88F494E1860B068B1
:1056000080B280F002030605C3F340034E4E5CBF38
:1056100043F00203DBB24005307858BF43F0040387
:10562000470703D45F0748BF43F0080387075DD4EB
:10563000980701D543F01003D1F8E470D1F8E000E9
:1056400001EB071C471C84440F2F33708CF8C030CB
:105650003A4ED1F8E43008D9D6F8E4C000270CF16E
:10566000010C0CF0010CC6F8E4C003EB43035B0132
:1056700000EB4000C6F8E07003EB40062D4B8819A4
:10568000B0F902C08E5B596A002A38D189B2CCF1D8
:10569000000C0CFB01FC06FB01F601794FEA1C4CE7
:1056A00001F0020711F0010FACF5004C25494FEA5B
:1056B0001646A4F802C02680FCB24FF4805714BFEF
:1056C0004F610F611F49B4B14FF400644C6101791F
:1056D000002A7FF467AFCF0747BFA5F89660A5F80B
:1056E0009820A5F89620A5F898605BE79807A3D4C2
:1056F00043F02003A0E74FF400640C61E7E74FF6A6
:10570000FF71C4E7114D2846FFF720FE2A8B6B6915
:1057100062802380BDE8F88F002C01400407002040
:10572000000C014000380040B80900207C0A00202D
:10573000A8090020880A0020D00A002010070020B5
:10574000780A002000080140800A0020D40A0020C6
:10575000F8B5174E01223046164C40F2ED2100F00C
:1057600017FF0021144800F021FD2046FEF7CEFC73
:10577000124800F0D9FD124D124800F037FE1248D1
:1057800000F01CFE2846FEF7CBFD104F104B2946BB
:105790002246CC2500240F481F605D609C60DC61C0
:1057A00000F03CF93046BDE8F84000F041BF00BFD2
:1057B000840A0020880A0020A8090020040700208D
:1057C0001007002000070020800A00203800002079
:1057D000D40A0020B80900202DE9F843FFF7B8FFEC
:1057E000DFF838814A4C4B4F08F10209D4F8E82021
:1057F000D4F8E4309A4200F081803B6BF868B3F54E
:10580000004348BFDB434FEA43039BB24FEA2321E7
:1058100038F8112039F8111003F0FE03C2EB010132
:1058200003FB01F3FD6A396902EB2322C0EB050596
:1058300001FB05F54CBF4FF0FF36012692B206FB87
:1058400002F2B86A7968BB68401AED1303FB00F3F3
:1058500005FB02F5DB1394F87B2103EB254505F5E9
:10586000F055002A4ED194F8EDE007F13401AEEB8B
:105870000E1605EB4626B6B2BEF1020FD4F8E8507C
:10588000D4F8E40018BF06F5C066B6B285420EC96A
:10589000A4F85A61A4F85E11A4F86021A4F8683154
:1058A00017D12BE0FEF7F8FF194E1022294630469B
:1058B000FEF70CFFD4F8E830013303F00103C4F81D
:1058C000E830D4F8E820D4F8E4309A4216D096F8BC
:1058D000EDE0D4F8E860D4F8E8500C3605EB450567
:1058E00004EB061604EB45151023094831462A46F9
:1058F000BEF1000FD6D0FFF7B7FAD5E7064800F0A3
:1059000019FC73E7024829B2FEF7D2FCABE700BFEF
:1059100010070020880A0020B8090020D82C0108B0
:105920002DE9F843D0F8AC30B0F8B88093F8EC200B
:10593000314E80F8B42093F8ED204FEAC80880F883
:10594000B52093F87B212D4B46449E42054680F8B6
:10595000B62000F1B40431D90023A0F8B83001F02A
:10596000CDF8274801F00AF9264801F007F9264842
:1059700001F004F9254801F001F9DFF89C90244E6C
:105980001F4FD5F8B410384601F01AF905F1B802E6
:10599000002114F8013B1944944289B2F9D14846D8
:1059A00001F03EF93046B5F8B81001F039F9B5F814
:1059B000B8300133A5F8B830BDE8F88301F09EF89F
:1059C000144B26F47F70434423F47F7320F00300CC
:1059D00023F0030308F10067834207F5F63705D08B
:1059E00001F0CCF8BE1D07F10409CAE7084EDFF844
:1059F00028904644C144C4E708EC0108FFFB0108B5
:105A000000EC010800F0010800F4010800F80108AA
:105A100006EC0108FFEB010804EC01082DE9F04158
:105A2000764C82B006464FF4806E48238846204666
:105A300001A901271546ADF804E08DF807308DF86F
:105A4000067001F009F906F1900000F0E3FC06F1A0
:105A50009A0000F06DFDA368694F13F4806F0CBFCE
:105A600004230023C6F8B050C6F8AC8086F8A830EE
:105A700006F1B40C06F1B80540F2FF1E3868634623
:105A8000CCF80000002213F8014B2244AB4292B242
:105A9000F9D1BB88F988934251D05A4B083F9F42B5
:105AA0000EF1FF3EEAD1002302220121A6F8B83010
:105AB00086F8BA1086F8BB2088F87B31C8F88831A0
:105AC00096F8BA30D6F8AC2003F00303032B75D058
:105AD000012B82F8EC3074D03046FFF721FF96F8A6
:105AE000BB30D6F8AC1003F00303032B6DD0C3F129
:105AF0000203D8B20022002301F51C7E01F51A77BB
:105B000001F5207501F51E740228CEE90023C7E9CE
:105B10000023C5E90023C4E9002381F8ED006AD021
:105B20000123C1F854313046FFF7FAFE4FF4004329
:105B3000A6F89630A6F8983002B0BDE8F08171451D
:105B4000ABD196F8B52096F8B430C2F1020286F8CF
:105B5000BB2086F8BA3096F8B60098F87B310EF183
:105B6000010E0030A6F8B8E018BF0120CBB9C0B1D3
:105B7000C8F8643208F5077208F5CE73002143F8BF
:105B8000041B9A42FAD108F51073002142F8041B55
:105B90009342FAD108F51971002243F8042B994277
:105BA000FAD1002388F87B01C8F8883196F8BA301A
:105BB000D6F8AC2003F00303032B89D1012382F82C
:105BC000EC30012382F8883286E70022002301F5B9
:105BD0001C7E01F51A7701F5207501F51E74012070
:105BE000CEE90023C7E90023C5E90023C4E9002367
:105BF00081F8ED0094E7042393E700BF000801401B
:105C0000F8FB0108F8EB01082DE9F00390F89B5030
:105C100090F89A40D5F1010501F0050338BF002541
:105C2000C1F34001D4F1010438BF002419430CBF73
:105C30000023012380F88C5080F88D4080F88E304E
:105C400001270026DFF874C004E090F88D4001378A
:105C5000BFB20136B3B2032B32F8131024D03CF894
:105C60002380DFF85890884588BF44F0010480F80D
:105C70008D406BB10CEB83035B888B4238BF45F0E2
:105C80000105072F80F88C50DFD1BDE8F003704785
:105C900090F88E30B9F8028088452CBF194643F041
:105CA000010180F88E10D2E7C94389B2B1F5805F57
:105CB00038BF44F0010480F88D40DBE768500108EC
:105CC0002DE9F047AC4D00F19A062B6804460133EC
:105CD00030462B6000F044FC30462246002310F88A
:105CE000011B802939D021BBD2F8A0603EB32F68B8
:105CF000DFF88482BE1BB6F57A7F20DDD4F8887089
:105D000004F1040C07F101090CEBC70E4FF0040A73
:105D100009F00F090CF837A0CEF80460AEF8023095
:105D2000C4F88890D8F800602660C2F8A01010F877
:105D3000011C7F2903D1D2F8A010002941D10133E1
:105D4000022B02F10402CAD194F8A830042B32D8F5
:105D5000DFE803F070BC90A65500D4F88810271D2A
:105D600001F1010E07EBC1064FF004080EF00F0E13
:105D70004FF0000C07F831807380C6F804C0C4F8F7
:105D800088E029682E682160C2F8A06010F8011C24
:105D9000A9E74FF6FF71002293F87B31A4F8921027
:105DA000A4F894203BB12B681B0604D50023A4F86B
:105DB0009430A4F8923004F1900000F091FBBDE81B
:105DC000F0872F68D4F8886007F1010C04F1040E05
:105DD00006F101090EEBC607C1EB0C0C4FF00408ED
:105DE00009F00F010EF83680C7F804C07B80C4F8B4
:105DF0008810296800262160C2F8A0609FE794F807
:105E00008E30002B77D194F88C20002A40F0A480AB
:105E100094F88D30002B40F0818084F8903084F825
:105E20009130A4F89230A4F89430A4F89630A4F8F5
:105E30009830C0E7D4F8AC3093F8EC2093F8ED102C
:105E4000961E70427041D2F1010238BF0022012932
:105E500084F8900084F8912070D09AD302295AD106
:105E600000214FF6FF7293F87B31A4F89210A4F84A
:105E7000942097E700234FF6FF72012184F89030B9
:105E8000A4F89230A4F8963084F89110A4F89420E5
:105E9000A4F8982004F1900000F022FBBDE8F08700
:105EA00000234FF6FF72012184F8901084F891309E
:105EB000A4F89430A4F89830A4F89220A4F896207E
:105EC00004F1900000F00CFBBDE8F0874FF6FF7383
:105ED000012284F8912084F89020A4F89430A4F84A
:105EE0009230A4F89830A4F8963004F1900000F0B5
:105EF000F7FABDE8F0874FF6FF73012284F890208F
:105F000084F89120A4F89230A4F89430A4F8963044
:105F1000A4F898304FE793F87B3143E74FF6FF73CF
:105F2000012184F89020A4F89220A4F8962084F807
:105F30009110A4F89430A4F898303CE793F87B31A2
:105F4000002B3FF434AF4FF400524FF48043A4F8D9
:105F50009220A4F8943026E74FF6FF72012184F8CE
:105F60009130A4F89430A4F8983084F89010A4F8F4
:105F70009220A4F896201EE7F40A002090F8A8309A
:105F8000F0B4042B50D0032B50D0012B3AD0022B6D
:105F900051D0002380F8BC304C88002C5FD0012CFD
:105FA00042D14B68B3F57A7F00F3908090F8BB3014
:105FB000D0F8AC100133DBB203F00302032A80F8FF
:105FC000BB306ED0C2F10202D4B20023002201F530
:105FD0001C7C01F51A7701F5207601F51E75022C5F
:105FE000CCE90023C7E90023C6E90023C5E9002363
:105FF00081F8ED4000F097800123C1F85431F0BCE6
:10600000FFF78EBC4B68B3F57A7F04DD90F8BC30A7
:10601000013380F8BC304B8843B9D0F8B03002214E
:106020009A6A1A6480F8A810F0BC7047002380F8C0
:10603000A830F0BC70474B88002280F8A820002BC5
:106040006CD0012BF0D190F8BC30012BECD14B6817
:10605000B3F57A7FE8DD032380F8A830E4E74B68E6
:10606000B3F57A7F05DDD0F8B0301B6AB3F5404F49
:1060700013DA90F8BA300133DBB203F00302032ADB
:1060800080F8BA30D0F8AC304FD0012A83F8EC2039
:10609000B5D1012283F88822B1E7012380F8A83026
:1060A000C2E70022002301F51C7C01F51A7701F5F7
:1060B000207601F51E75CCE90023C7E90023C6E967
:1060C0000023C5E9002381F8ED4095E7D0F8AC4006
:1060D00094F87B3183F00105C3B9C4F8643204F548
:1060E000077204F5CE73002143F8041B9A42FAD1DB
:1060F00004F51073002142F8041B9342FAD104F511
:106100001971002243F8042B9942FAD1002384F834
:106110007B51C4F88831F0BCFFF702BCD0F8B00066
:10612000F0BCFEF743B8042367E7012283F8EC20B4
:10613000AFE700BF30B5D0F88820D0F8843083B006
:10614000D31A1A07044618BF6D4607D120E0D4F8C9
:106150008820D4F88430D31A1B0719D0D4F884309F
:1061600004EBC302043292E8030085E803009DF8C3
:106170000020013303F00F03042AC4F88430E6D171
:10618000019B002BE3D020466946FFF7F7FEDEE7D0
:10619000054B226819688A1AB2F57A7F01D91B6803
:1061A000236003B030BD00BFF40A00202DE9F047A2
:1061B00092B001240025FC2307460E46554801A94C
:1061C000ADF804308DF806408DF8075000F044FD1E
:1061D00001A95148ADF804408DF806408DF80750EC
:1061E00000F03AFD4D4800F0DFFBDFF83891AE4299
:1061F0004FF020024FF400530CBF4FF0070AA246A5
:106200004FF4807C4FF4806E444807A94FF080081B
:106210000F921093CDF834C0CDF838E00897099567
:106220000B951195CDF828A0CDF81C90CDF83080B5
:1062300000F03AFC2146394800F056FC384800F09E
:10624000D9FA4FF460224FF4006302958DF80C40A8
:106250008DF80D400492059356B3314802A98DF88C
:10626000184000F0FDFA22462D480421062300F0D4
:106270004DFB2B48012100F017FB294800F028FBBB
:10628000274800F02BFB0028FAD1254800F02AFB14
:10629000234800F02DFB0028FAD12148012100F00D
:1062A0000DFB1F48012100F027FB12B0BDE8F0876D
:1062B000072502A91A488DF8185000F0D1FA0621D6
:1062C00022460B46164800F021FB15480321022206
:1062D000062300F01BFB124804210322052300F0D3
:1062E00015FB0F4802210422032300F00FFB0521B8
:1062F0000A460B48032300F009FB0948082106223F
:10630000032300F003FB29462A460548032300F037
:10631000FDFAAEE700080140000C01400800024011
:10632000002401404C240140F0B5224E87B00746BE
:10633000694630464FF48052032410231E4DADF8B9
:1063400000208DF802408DF8033000F085FC3046C7
:1063500069464FF4204218238DF80240ADF8002022
:1063600000248DF80330022600F076FC4FF4827C86
:106370004FF4006E4FF400720723284601A9ADF8D0
:1063800006C0ADF808E0ADF80E20ADF81430ADF859
:106390000440ADF80C40ADF81040ADF81240ADF837
:1063A0000A6000F029FD2846012100F045FD3C71FE
:1063B00007B0F0BD000C01400038004030B583B09C
:1063C00004460122482340F60245074801A98DF8FA
:1063D0000730ADF804508DF8062000F03DFC002396
:1063E000237003B030BD00BF000C014010B582B077
:1063F000032210234FF4C054054801A9ADF804400E
:106400008DF806208DF8073000F026FC02B010BD94
:106410000008014070B5304D88B0304C0126284648
:1064200069464FF470721823ADF800208DF80330E0
:106430008DF8026000F010FC3022694628461023D7
:10644000ADF8002000258DF803308DF8026000F0D3
:1064500003FC40F2FF132046ADF80830ADF80450BD
:10646000ADF80A50ADF806508DF80C5000F032FE31
:10647000204601A900F0EEFC6023204604A9ADF8F7
:106480001030ADF81260ADF81650ADF8185000F0AD
:1064900005FD2046082100F025FE204604A900F055
:1064A0003BFD2046082100F025FE204604A900F00F
:1064B0007BFD2046082100F027FE204604A900F0BD
:1064C000BBFD2046082100F027FE2046314600F0A3
:1064D000E9FD08B070BD00BF000C0140000800409D
:1064E00070B50189104D0446C909284600F01EFE0A
:1064F000E1882846C90900F01BFEA1882846C90981
:1065000000F018FE6188094E2846C90900F014FE03
:1065100022783046202100F0FFFB304662781021BF
:10652000BDE8704000F0F8BB00080040000C0140DE
:1065300010B5FF2182B0022200F038FE03240122B0
:106540004823064801A9ADF804408DF806208DF8CF
:10655000073000F081FB02B010BD00BF0008014011
:1065600070B50A4D044606780121284600F0CEFB9E
:106570007600F6B2637830432070022128465D0031
:1065800000F0C4FBEDB22843607070BD000801400C
:1065900030B5144685B00D4600F064F82CB14FF0CC
:1065A00000604FF4804100F01BF944F60D200121FA
:1065B00000F0FEFB44F20600012100F005FC012082
:1065C000014600F0E9FB0121174800F0ABFB4FF456
:1065D000004000F0D7FB00241448ADF80850ADF897
:1065E0000440ADF80A40ADF806408DF80C4000F0CC
:1065F00071FD01A90D4800F02DFC01210B4800F0B0
:1066000051FD4FF4A06000F0A9F81922012368465B
:106610008DF801408DF802408DF800208DF8033090
:1066200000F0A6F805B030BD00013000002C01409C
:1066300038B501210A46074800F042FD064D074BD8
:106640000748F0245D60002180F82340072299600C
:106650001A6038BD002C01403F19010010E000E035
:1066600000ED00E03A4B10B419683A4A41F00101DC
:1066700019605C6883B022405A601A68002122F0D9
:10668000847222F480321A601A684FF41F0022F4D8
:1066900080221A605A6822F4FE025A6098600091C3
:1066A00001911A6842F480321A6003E0009BB3F54E
:1066B000A06F0AD0264B1B6803F400330193009BA4
:1066C00001330093019B002BF0D0214B1B6813F486
:1066D000003318BF01230193019B012B00D0FEE77B
:1066E0001D4A1B4B116841F010011160116821F027
:1066F00003011160116841F0020111605A685A608B
:106700005A685A605A6842F480625A605A6822F4A1
:106710007C125A605A6842F4E8125A601A6842F0D1
:1067200080721A600A4B1A689201FBD55A6822F0EF
:1067300003025A605A6842F002025A60044B5B68D6
:1067400003F00C03082BF9D103B05DF8044B70473C
:10675000001002400000FFF80020024040F0BF603F
:10676000024B40F40030D860704700BF00ED00E0FD
:10677000C37830B45BB90378012103F01F02914064
:1067800030BC5B09144A203342F823107047134B86
:106790004478DB680F22DB43C3F30223C3F1040117
:1067A00022FA03F38C408578017803EA050222433C
:1067B00001F160431201D2B203F5614383F8002373
:1067C0000378012103F01F02914030BC024A5B09AB
:1067D00042F82310704700BF00E100E000ED00E048
:1067E00021F0604121F07F01014B08439860704720
:1067F00000ED00E008B5174B984212D0164B9842B6
:106800001BD0164B984200D008BD4FF40040012128
:1068100000F0E6FABDE808404FF40040002100F027
:10682000DFBA4FF40070012100F0DAFABDE8084049
:106830004FF40070002100F0D3BA4FF480600121C2
:1068400000F0CEFABDE808404FF48060002100F06F
:10685000C7BA00BF0024014000280140003C0140AD
:1068600043680A6823F4702330B423F480730C79EE
:10687000134343EA0423436085688C68CA68094B64
:1068800022432B404D79134343EA450383600B7C3D
:10689000C26A013BDBB222F4700242EA0353C362D4
:1068A00030BC7047FDF7F1FF836819B923F001038D
:1068B0008360704743F0010383607047836819B9B0
:1068C00023F480738360704743F480738360704760
:1068D000836843F008038360704700BF8068C0F39B
:1068E000C0007047836843F004038360704700BFB3
:1068F0008068C0F380007047836819B923F4A0034F
:106900008360704743F4A00383607047092970B423
:106910001FD9A1F10A0404EB44040726A64003FA98
:1069200004F4C568062A25EA060343EA0403C360A3
:106930001DD90C2A29D970BC0D3A02EB82021F2303
:10694000934001FA02F2C16A21EA03031A43C262C8
:10695000704701EB41040726A64003FA04F40569D9
:10696000062A25EA060343EA04030361E1D870BC62
:10697000013A02EB82021F23934001FA02F2416BBB
:1069800021EA03031A4342637047073A02EB82028B
:106990001F23934070BC01FA02F2016B21EA03034A
:1069A0001A430263704700BF0168324A002321F096
:1069B000010190420160036043608360C36044D082
:1069C0002D4B984225D02D4B984230D02C4B9842DD
:1069D00034D02C4B984223D02B4B98423BD02B4B9E
:1069E00098420FD02A4B98423CD02A4B984210D064
:1069F000294B98421BD0294B98421FD0284B9842D4
:106A00000ED0704753F87C2C42F0706243F87C2C17
:106A1000704753F8182C42F0F00243F8182C7047D6
:106A200053F8542C42F4702243F8542C704753F816
:106A30002C2C42F4706243F82C2C704753F8402CF5
:106A400042F4704243F8402C7047164B5A6842F0AB
:106A50000F025A60704753F8682C42F4700243F8F2
:106A6000682C704753F8042C42F00F0243F8042CB2
:106A7000704700BF080002401C0002403000024086
:106A800044000240580002406C0002408000024076
:106A9000080402401C040240300402404404024046
:106AA00058040240000002408A68F0B40C6A0B6986
:106AB00014434A691C438B69CE69224307684D6AB7
:106AC00013438C6A1E43354327F4FF43CE680F6897
:106AD0004A682C4323F070032343036046608760B9
:106AE000C260F0BC704700BF036819B923F001030E
:106AF0000360704743F0010303607047024B034992
:106B0000034A59605A6070470020024023016745DC
:106B1000AB89EFCD084BDA68D1070BD4DA6852079E
:106B200001D502207047DB6813F0100F0CBF042062
:106B300003207047012070470020024010B582B04A
:106B40000446FFF7E7FF012812D1A4B1FF2300227A
:106B500001920193019B2BB1019B013B0193019B8E
:106B6000002BF9D1FFF7D6FF012804F1FF34ECD058
:106B70000CB102B010BD052002B010BD38B50546FD
:106B800040F6FF70FFF7DAFF042800D038BD0B4C49
:106B900040F6FF70236943F00203236165612369B6
:106BA00043F040032361FFF7C9FF0528EED02269B7
:106BB00041F6FD731340236138BD00BF0020024041
:106BC00070B5002382B005460F200C460193FFF7F5
:106BD000B5FF042801D002B070BD104EA3B23269D7
:106BE0000F2042F0010232612B80FFF7A7FF04283B
:106BF00008D00528EFD0326941F6FE7313403361A7
:106C000002B070BD02350195019B240C1C800F2041
:106C1000FFF794FF0528EED1DDE700BF002002401A
:106C200070B504460F200D46FFF788FF042800D0FA
:106C300070BD084E0F20336943F001033361258096
:106C4000FFF77CFF0528F3D0326941F6FE7313404D
:106C5000336170BD00200240F0B4CD78EB0648BF30
:106C60008B78098805F00F0648BF1E4311F0FF0F0F
:106C700020D00768002302E00133082B19D001223D
:106C80009A4002EA01049442F6D19A004FF00F0CA8
:106C90000CFA02FC06FA02F227EA0C07282D47EA52
:106CA000020731D0482D03F1010308BF0461082B0E
:106CB000E5D10760FF2923D94768002302E00133AB
:106CC000082B1CD0012403F1080204FA02F202EAA4
:106CD00001049442F3D19A004FF00F0C0CFA02FC1D
:106CE00006FA02F227EA0C07282D47EA020709D024
:106CF000482D03F1010308BF0461082BE2D147606E
:106D0000F0BC70474461DAE74461B5E78368194233
:106D10000CBF0020012070470AB941617047016132
:106D2000704700BF30B4164A00F44014B4F5401F59
:106D300085B253681CD0C20211D5C0F303420324AC
:106D400004FA02F223EA020343F0706319B1400D22
:106D5000000185402B430A4A30BC53607047420D06
:106D6000120105FA02F223EA020343F07063EDE731
:106D7000546823F0706324F070645460E6E700BF49
:106D800000000140034B5A6822F44042104358600F
:106D9000704700BF00100240044B5A6919B922EA3B
:106DA000000058617047104358617047001002405E
:106DB000044B9A6919B922EA0000986170471043A0
:106DC0009861704700100240044BDA6919B922EA51
:106DD0000000D86170471043D8617047001002402E
:106DE000044BDA6819B922EA0000D86070471043F2
:106DF000D860704700100240F0B40B884C888A8835
:106E00001C43CB8814430A891C434B898F89224336
:106E10000588CE891A433A43324305F4415313435C
:106E20009BB20380838B0A8A23F400631B041B0C30
:106E30008383F0BC02827047038829B923F04003A2
:106E40001B041B0C038070479BB243F0400303807C
:106E5000704700BF038830B403F08F0303800588B8
:106E6000CA884B88ADB215431D430B4B8C880A88EA
:106E7000ADB2984205808485028507D003F5006392
:106E8000984203D030BC0123838270470B7A30BC18
:106E90000386012383827047002C0140038CF0B4E9
:106EA00023F001031B041B0C0384028C0D898488CE
:106EB0004F88038B2F4322F0020223F07303154DFA
:106EC00012041B040E88120CBFB21B0CA84247EA26
:106ED0000202A4B243EA06030AD005F50065A842FF
:106EE00006D0C98884800383F0BC81860284704701
:106EF0004F898D89CE8922F008023A432E438F882C
:106F000047F6FF4522F00402B6B225403A4346EA6E
:106F10000504E6E7002C0140038CF0B423F01003D5
:106F20001B041B0C0384028C848822F02002038B38
:106F30000D89120423F4E643120C42EA05124F882D
:106F40001B040E88174D1B0C42EA071243EA062366
:106F5000A84292B2A4B29BB20AD005F50065A8423D
:106F600006D0C98884800383F0BC018702847047FF
:106F700022F08002B1F80AC092B247F2FF368F8940
:106F800042EA0C1C26404FF6BF758A88CC890CEA71
:106F9000050546EA870645EA021246EA840492B2EB
:106FA000A4B2DEE7002C0140038CF0B423F480731C
:106FB0001B041B0C0384028C0D8922F4007284884C
:106FC0001204838B120C42EA05224F8823F07303CC
:106FD000184D1B040E8842EA07221B0CA84292B2ED
:106FE000A4B243EA06030AD005F50065A84206D01C
:106FF000C98884808383F0BC81870284704722F42F
:107000000062B1F80AC092B244F6FF768F8942EA74
:107010000C2C26404FF6FF358A88CC890CEA0505F2
:1070200046EA071645EA022246EA041492B2A4B2DE
:10703000DEE700BF002C0140038CF0B423F4805342
:107040001B041B0C0384028C848822F40052838B63
:107050000D89120423F4E643120C42EA05324F88EC
:107060001B040E880E4D1B0C42EA073243EA06232E
:10707000A84292B2A4B29BB20BD005F50065A8421B
:1070800007D0C98884808383F0BCA0F840100284B4
:1070900070478D89C4F30D0444EA8514A4B2F0E767
:1070A000002C0140038829B923F001039B059B0DA7
:1070B000038070479BB243F001030380704700BF19
:1070C00083899BB21AB923EA010181817047194370
:1070D00081817047038923F007031B041B0C038184
:1070E000704700BF038B23F008031B041B0C1943DC
:1070F00001837047038B23F400631B041B0C43EADA
:1071000001218BB203837047838B23F008031B0498
:107110001B0C194381837047838B23F400631B048A
:107120001B0C43EA01218BB2838370478186704731
:107130000187704781877047A0F84010704700BFF3
:10714000038A828911EA030092B203D011420CBF74
:1071500000200120704700BFC94389B201827047F7
:10716000002100F004B80B4B5B58435004310A482F
:107170000A4B42189A42FFF4F6AF094A00F003B8EE
:10718000002342F8043B074B9A42FFF4F9AFFEF7A5
:1071900023FB70479C5001080000002000050020E0
:1071A00000070020F80A0020FFF7FEBFF0B48407B4
:1071B00043D0541E002A3ED0CDB2034603E0621EE7
:1071C000002C38D0144603F8015B9A07F7D1032C42
:1071D0002AD9CDB245EA05250F2C45EA054515D932
:1071E000A4F110073F0903F1100606EB07161A4633
:1071F000156055609560D5601032B242F8D104F048
:107200000F040137032C03EB07130DD91E4622464A
:10721000043A032A46F8045BFAD8221F22F003023C
:107220000432134404F003042CB1C9B21C4403F823
:10723000011BA342FBD1F0BC704714460346C6E7CE
:107240000100000001000000050000000400000033
:107250000400000003000000030000000200000022
:107260000500000003000000020000000100000013
:107270000300000001000000040000000100000005
:1072800006000000010000000800000001000000EE
:107290000C000000010000001000000001000000D0
:1072A00000006001BF021E047C05DA063608920960
:1072B000EC0A450C9B0DF00E43109411E2122D14B4
:1072C0007615BB16FD173C19781AB01BE31C131E6C
:1072D0003F1F66208921A722C023D524E425EE265E
:1072E000F327F228EB29DF2ACD2BB52C972D732E0F
:1072F000482F1730E030A2315D321133BF3366348E
:1073000006359F353136BC364037BC373238A03869
:1073100006396639BE390F3A593A9B3AD63A093B93
:10732000363B5B3B793B8F3B9F3BA73BA83BA23B5C
:10733000953B823B673B463B1D3BEF3AB93A7D3A72
:107340003B3AF239A4394F39F43893382D38C137E4
:107350004F37D8365B36DA355335C8343834A33333
:107360000A336D32CB3126317C30CF2F1F2F6B2E5D
:10737000B42DF92C3C2C7D2BBB2AF629302967280B
:107380009D27D0260326342564249323C222F0218E
:107390001D214A20771FA51ED21D001D2F1C5F1B1B
:1073A0008F1AC119F41828185F179716D1150D15E3
:1073B0004C148D13D01217126011AD10FC0F4F0F2B
:1073C000A60E000E5E0DC00C260C900BFE0A710A74
:1073D000E8096309E4086908F30782071707B0069C
:1073E0004F06F3059C054B050005BA047A043F04DB
:1073F0000B04DC03B303900373035C034B034003F0
:107400003B033C034303500363037D039C03C2031C
:10741000ED031F0456049404D70420056F05C4052A
:107420001F067F06E6065107C3073908B508370966
:10743000BE094A0ADB0A710B0C0CAC0C500DFA0D9C
:10744000A70E5A0F1010CB108A114E121513DF130E
:10745000AE14801556162F170B18EA18CC19B21A4D
:10746000991B841C711D601E511F45203A21312239
:107470002A23252420251D261C271B281B291C2ADE
:107480001D2B1F2C212D242E262F29302B312D3260
:107490002F33303430352F362E372C382839233AD5
:1074A0001D3B153C0B3D003EF33EE43FD340C04145
:1074B000AB42934379445C453C461A47F647CE4875
:1074C000A349754A444B104CD94C9F4D614E1F4FF8
:1074D000DA4F92504651F651A2524B53F053915409
:1074E0002F55C8555E56EF567D5706588C580D5986
:1074F0008B59045A7A5AEB5A585BC15B265C875CFD
:10750000E45C3D5D925DE35D305E795EBE5E005F92
:107510003D5F765FAC5FDE5F0C6037605D60816011
:10752000A060BC60D560EA60FC600B6116611E6102
:1075300023612561246121611A6110610461F56094
:10754000E360CF60B960A0608560686048602660D5
:107550000360DD5FB65F8D5F625F365F085FD95E97
:10756000A85E775E435E0F5EDA5DA45D6D5D355D9E
:10757000FC5CC35C895C4F5C145CD95B9E5B625BAA
:10758000275BEB5AB05A745A395AFE59C359885975
:107590004E591559DC58A4586C583558FF57CA57DE
:1075A000965762573057FF56CF56A05672564656DA
:1075B0001B56F155C955A2557C555955365516558A
:1075C000F654D954BD54A3548A5474545F544C5443
:1075D0003A542B541D5411540754FF53F953F55387
:1075E000F253F253F353F753FC5303540C54175410
:1075F000235432544354555469547F549754B154CE
:10760000CC54EA54095529554C5570559655BD55DD
:10761000E65511563D566B569B56CB56FE56315786
:1076200067579D57D5570E5848588458C158FE582B
:107630003D597E59BF59015A445A885ACD5A135B55
:107640005A5BA15BE95B325C7C5CC65C105D5C5D97
:10765000A75DF45D405E8D5EDB5E295F765FC55F92
:1076600013606260B060FF604E619D61EC613A62E0
:107670008962D86226637463C26310645D64AA641D
:10768000F76443658F65DB6526667066BA660467D6
:107690004D679567DD6724686A68B068F568396981
:1076A0007C69BF69016A426A826AC26A006B3E6B8A
:1076B0007B6BB76BF26B2C6C656C9D6CD56C0B6D3A
:1076C000406D756DA86DDB6D0C6E3D6E6C6E9B6EC6
:1076D000C86EF46E206F4A6F746F9C6FC46FEA6F50
:1076E0001070357058707B709C70BD70DD70FB70D1
:1076F0001971367152716D718771A171B971D07143
:10770000E771FD711272267239724C725D726E727F
:107710007E728E729D72AB72B872C472D072DC725D
:10772000E672F072FA7203730B7313731A73207399
:1077300026732C73317336733A733E7341734473FB
:10774000477349734B734D734E734F73507351733B
:1077500051735173507350734F734F734E734D7316
:107760004B734A734973477346734473427341734F
:107770003F733D733B733A733873367335733373AA
:10778000327330732F732E732C732B732B732A73F6
:1077900029732973297328732873297329732A730A
:1077A0002A732B732D732E733073327334733673C5
:1077B00038733B733E734173457349734D73517313
:1077C00055735A735F7364736A736F7375737C73E5
:1077D00082738973907397739E73A673AE73B67337
:1077E000BF73C773D073D973E373EC73F67300740C
:1077F0000A74157420742A74357441744C74587466
:10780000647470747C7488749574A174AE74BB7461
:10781000C874D674E374F174FE740C751A75287507
:10782000367545755375627570757F758D759C7568
:10783000AB75BA75C975D875E775F67505761576A1
:1078400024763376427652766176707680768F76BD
:107850009E76AE76BD76CC76DC76EB76FA760977D8
:1078600018772877377746775577647773778177F6
:1078700090779F77AD77BC77CB77D977E777F67737
:107880000478127820782E783C784A785778657892
:10789000727880788D789A78A778B478C178CE7825
:1078A000DB78E778F47800790C79197925793179E2
:1078B0003C79487954795F796B79767981798D79DA
:1078C0009879A279AD79B879C379CD79D779E27908
:1078D000EC79F679007A0A7A147A1E7A277A317A64
:1078E0003A7A437A4D7A567A5F7A687A717A7A7AF6
:1078F000827A8B7A947A9C7AA57AAD7AB57ABE7AB6
:10790000C67ACE7AD67ADE7AE67AED7AF57AFD7A9A
:10791000047B0C7B147B1B7B227B2A7B317B387B9B
:10792000407B477B4E7B557B5C7B637B6A7B717BBB
:10793000787B7F7B857B8C7B937B9A7BA07BA77BF3
:10794000AE7BB47BBB7BC27BC87BCF7BD57BDC7B38
:10795000E27BE97BEF7BF57BFC7B027C097C0F7C87
:10796000157C1C7C227C297C2F7C357C3C7C427CD9
:10797000487C4F7C557C5B7C627C687C6E7C757C33
:107980007B7C817C887C8E7C947C9A7CA17CA77C8F
:10799000AD7CB47CBA7CC17CC77CCD7CD47CDA7CE9
:1079A000E07CE77CED7CF37CFA7C007D077D0D7D3F
:1079B000137D1A7D207D277D2D7D347D3A7D417D8F
:1079C000477D4D7D547D5A7D617D677D6E7D747DE3
:1079D0007B7D817D887D8E7D957D9B7DA27DA87D33
:1079E000AF7DB57DBC7DC27DC97DCF7DD67DDC7D83
:1079F000E37DE97DF07DF67DFD7D037E0A7E107ED0
:107A0000177E1D7E247E2A7E317E377E3E7E447E1A
:107A10004B7E517E587E5E7E657E6B7E727E787E6A
:107A20007E7E857E8B7E927E987E9E7EA57EAB7EC0
:107A3000B27EB87EBE7EC57ECB7ED17ED87EDE7E17
:107A4000E47EEA7EF17EF77EFD7E047F0A7F107F72
:107A5000167F1C7F237F297F2F7F357F3B7F417FD0
:107A6000477F4E7F547F5A7F607F667F6C7F727F37
:107A7000787F7E7F847F8A7F907F967F9C7FA27FA6
:107A8000A87FAE7FB47FB97FBF7FC57FCB7FD17F1B
:107A9000D77FDC7FE27FE87FEE7FF47FF97FFF7F97
:107AA000FF7F000000000A0014001E0029003300C0
:107AB0003D00470051005C00660070007A008500C0
:107AC0008F009900A300AE00B800C200CD00D7001F
:107AD000E100EC00F60000010B01150120012A0174
:107AE00034013F01490154015E01690173017E01C6
:107AF000880193019D01A801B201BD01C701D20116
:107B0000DC01E701F201FC01070212021C0227025C
:107B100031023C02470252025C02670272027C029E
:107B2000870292029D02A702B202BD02C802D302DE
:107B3000DE02E802F302FE02090314031F032A0314
:107B4000350340034A03550360036B037603810347
:107B50008C039703A203AD03B903C403CF03DA0375
:107B6000E503F003FB03060411041D042804330499
:107B70003E044904540460046B04760481048D04BB
:107B80009804A304AF04BA04C504D104DC04E704D8
:107B9000F304FE040905150520052C0537054305EA
:107BA0004E055A05650571057C05880593059F05F9
:107BB000AA05B605C105CD05D905E405F005FC0506
:107BC000070613061F062A06360642064E06590603
:107BD000650671067D0688069406A006AC06B80602
:107BE000C406D006DB06E706F306FF060B071707F9
:107BF00023072F073B07470753075F076B077707E5
:107C000083078F079C07A807B407C007CC07D807CE
:107C1000E407F107FD070908150822082E083A08AD
:107C2000460853085F086B087808840891089D0887
:107C3000A908B608C208CF08DB08E808F40801095B
:107C40000D091A09260933093F094C095909650923
:107C500072097F098B099809A509B109BE09CB09E9
:107C6000D809E409F109FE090B0A180A240A310AA5
:107C70003E0A4B0A580A650A720A7F0A8C0A990A58
:107C8000A60AB30AC00ACD0ADA0AE70AF40A010B07
:107C90000E0B1B0B290B360B430B500B5D0B6B0BA9
:107CA000780B850B920BA00BAD0BBA0BC80BD50B49
:107CB000E20BF00BFD0B0B0C180C260C330C410CDB
:107CC0004E0C5C0C690C770C840C920CA00CAD0C67
:107CD000BB0CC80CD60CE40CF20CFF0C0D0D1B0DEC
:107CE000290D360D440D520D600D6E0D7C0D8A0D63
:107CF000980DA60DB30DC10DCF0DDD0DEC0DFA0DD8
:107D0000080E160E240E320E400E4E0E5C0E6B0E3A
:107D1000790E870E950EA40EB20EC00ECF0EDD0E9C
:107D2000EB0EFA0E080F170F250F330F420F500FEF
:107D30005F0F6D0F7C0F8B0F990FA80FB60FC50F3C
:107D4000D40FE30FF10F00100F101E102C103B107A
:107D50004A1059106810771086109410A310B210B2
:107D6000C110D010DF10EF10FE100D111C112B11DF
:107D70003A11491159116811771186119611A511FF
:107D8000B411C411D311E211F21101121112201217
:107D900030123F124F125E126E127E128D129D1221
:107DA000AD12BC12CC12DC12EC12FB120B131B1323
:107DB0002B133B134B135B136B137B138B139B1313
:107DC000AB13BB13CB13DB13EB13FB130C141C14FF
:107DD0002C143C144D145D146D147E148E149E14DA
:107DE000AF14BF14D014E014F114021512152315AA
:107DF0003315441555156515761587159815A9156C
:107E0000B915CA15DB15EC15FD150E161F16301623
:107E1000411652166316751686169716A816B916C9
:107E2000CB16DC16ED16FF16101722173317441762
:107E30005617671779178B179C17AE17C017D117EE
:107E4000E317F517061818182A183C184E1860186A
:107E5000721884189618A818BA18CC18DE18F018DA
:107E600003191519271939194C195E197019831935
:107E70009519A819BA19CD19DF19F219051A171A87
:107E80002A1A3D1A4F1A621A751A881A9B1AAE1AC4
:107E9000C11AD41AE71AFA1A0D1B201B331B461BF2
:107EA0005A1B6D1B801B931BA71BBA1BCE1BE11B10
:107EB000F51B081C1C1C2F1C431C571C6A1C7E1C19
:107EC000921CA61CB91CCD1CE11CF51C091D1D1D16
:107ED000311D451D5A1D6E1D821D961DAB1DBF1DFA
:107EE000D31DE81DFC1D111E251E3A1E4E1E631ECD
:107EF000781E8C1EA11EB61ECB1EE01EF51E0A1F8C
:107F00001F1F341F491F5E1F731F881F9D1FB31F34
:107F1000C81FDD1FF31F08201E20332049205E20CC
:107F200074208A20A020B520CB20E120F7200D214D
:107F3000232139214F2165217B219221A821BE21B6
:107F4000D521EB21022218222F2245225C22732206
:107F50008922A022B722CE22E522FC2213232A2343
:107F600041235823702387239E23B523CD23E42365
:107F7000FC2314242B2443245B2472248A24A2246B
:107F8000BA24D224EA2402251A2533254B25632559
:107F90007C259425AC25C525DE25F6250F2628262B
:107FA0004026592672268B26A426BD26D726F026E3
:107FB000092722273C2755276F278827A227BC2778
:107FC000D527EF27092823283D28572871288B28F3
:107FD000A628C028DA28F5280F292A2944295F294C
:107FE0007A299529B029CB29E629012A1C2A372A82
:107FF000522A6E2A892AA52AC02ADC2AF82A132B9B
:108000002F2B4B2B672B832B9F2BBC2BD82BF42B8D
:10801000112C2D2C4A2C662C832CA02CBD2CDA2C58
:10802000F72C142D312D4E2D6C2D892DA72DC42DFF
:10803000E22D002E1D2E3B2E592E772E962EB42E7D
:10804000D22EF12E0F2F2E2F4C2F6B2F8A2FA92FD0
:10805000C82FE72F06302530453064308430A330F8
:10806000C330E33003312331433163318431A431F0
:10807000C431E53106322732473268328A32AB32B8
:10808000CC32ED320F333033523374339633B8334E
:10809000DA33FC331F34413463348634A934CC34AE
:1080A000EF341235353558357C359F35C335E735D6
:1080B0000B362F36533677369C36C036E5360A37C0
:1080C0002E37533779379E37C337E9370E38343870
:1080D0005A388038A638CD38F3381A3940396739DC
:1080E0008E39B539DD39043A2B3A533A7B3AA33A03
:1080F000CB3AF33A1C3B443B6D3B963BBF3BE83BE2
:10810000123C3B3C653C8F3CB93CE33C0D3D383D6B
:10811000623D8D3DB83DE33D0E3E3A3E663E913EAA
:10812000BD3EEA3E163F433F6F3F9C3FC93FF73F8E
:10813000244052408040AE40DC400A413941684111
:108140009741C641F641254255428542B642E64234
:10815000174348437943AA43DC430E4440447244E6
:10816000A544D7440A453E457145A545D9450D4628
:1081700041467646AB46E04616474C478247B847ED
:10818000EF4725485D489448CC4804493C49744928
:10819000AD49E649204A5A4A944ACE4A094B444BD3
:1081A0007F4BBB4BF74B334C6F4CAC4CEA4C274DE1
:1081B000654DA44DE34D224E614EA14EE14E224F3E
:1081C000634FA44FE64F28506A50AD50F1503451E0
:1081D0007951BD51025248528E52D4521B536253B0
:1081E000AA53F2533B548454CE5418556355AE559C
:1081F000FA5546569356E1562E577D57CC571C5884
:108200006C58BD580E596059B359065A5A5AAF5A4C
:10821000045B5A5BB05B085C605CB85C125D6C5DD3
:10822000C75D225E7F5EDC5E3A5F995FF95F5960F1
:10823000BA601D618061E4614962AF6216637E636A
:10824000E7635064BB642765946503667266E26603
:108250005467C7673B68B06826699E69176A926A67
:108260000E6B8B6B0A6C8A6C0C6D8F6D146E9B6E33
:10827000236FAD6F3970C6705671E7717B721073E2
:10828000A7734174DC747A751B76BD7662770A78C1
:10829000B4786179117AC47A797B327CEE7CAD7DD9
:1082A0006F7E357FFF7FF57FEB7FE17FD67FCC7FD1
:1082B000C27FB87FAE7FA37F997F8F7F857F7A7FD4
:1082C000707F667F5C7F517F477F3D7F327F287F55
:1082D0001E7F137F097FFF7EF47EEA7EDF7ED57EE0
:1082E000CB7EC07EB67EAB7EA17E967E8C7E817E6E
:1082F000777E6C7E627E577E4D7E427E387E2D7EFE
:10830000237E187E0D7E037EF87DED7DE37DD87D96
:10831000CE7DC37DB87DAD7DA37D987D8D7D837D34
:10832000787D6D7D627D587D4D7D427D377D2C7DD4
:10833000217D177D0C7D017DF67CEB7CE07CD57C7E
:10834000CA7CBF7CB57CAA7C9F7C947C897C7E7C2B
:10835000737C687C5D7C527C467C3B7C307C257CDD
:108360001A7C0F7C047CF97BEE7BE27BD77BCC7B99
:10837000C17BB67BAB7B9F7B947B897B7E7B727B57
:10838000677B5C7B507B457B3A7B2E7B237B187B1A
:108390000C7B017BF67AEA7ADF7AD37AC87ABC7AE8
:1083A000B17AA57A9A7A8E7A837A777A6C7A607AB9
:1083B000557A497A3E7A327A267A1B7A0F7A037A8C
:1083C000F879EC79E079D579C979BD79B179A6796F
:1083D0009A798E79827977796B795F795379477950
:1083E0003B792F79247918790C790079F478E87839
:1083F000DC78D078C478B878AC78A078947888782D
:108400007C787078637857784B783F783378277822
:108410001B780E780278F677EA77DD77D177C57723
:10842000B977AC77A077947787777B776E77627729
:10843000567749773D773077247717770B77FE7635
:10844000F276E576D976CC76C076B376A6769A764D
:108450008D768076747667765A764E764176347667
:1084600027761B760E760176F475E775DB75CE758B
:10847000C175B475A7759A758D75807573756675B8
:1084800059754C753F753275257518750B75FE74E9
:10849000F174E474D674C974BC74AF74A274947427
:1084A00087747A746D745F745274457437742A7467
:1084B0001D740F740274F473E773D973CC73BE73B5
:1084C000B173A373967388737B736D735F73527309
:1084D0004473377329731B730D730073F272E47264
:1084E000D672C972BB72AD729F72917283727572CD
:1084F000677259724C723E72307222721372057238
:10850000F771E971DB71CD71BF71B171A3719471B4
:10851000867178716A715B714D713F713071227132
:1085200014710571F770E870DA70CC70BD70AF70BF
:10853000A0709270837074706670577049703A7052
:108540002B701C700E70FF6FF06FE16FD36FC46FF4
:10855000B56FA66F976F886F796F6B6F5C6F4D6F9C
:108560003E6F2F6F206F106F016FF26EE36ED46E4F
:10857000C56EB66EA66E976E886E796E696E5A6E0F
:108580004B6E3B6E2C6E1D6E0D6EFE6DEE6DDF6DD7
:10859000CF6DC06DB06DA16D916D816D726D626DAD
:1085A000526D436D336D236D136D046DF46CE46C8B
:1085B000D46CC46CB46CA46C946C846C746C646C7B
:1085C000546C446C346C246C146C046CF36BE36B6F
:1085D000D36BC36BB26BA26B926B816B716B616B74
:1085E000506B406B2F6B1F6B0E6BFD6AED6ADC6A84
:1085F000CC6ABB6AAA6A9A6A896A786A676A566AA2
:10860000466A356A246A136A026AF169E069CF69C9
:10861000BE69AD699C698A69796968695769466903
:108620003469236912690069EF68DD68CC68BB684A
:10863000A968986886687468636851683F682E689E
:108640001C680A68F967E767D567C367B1679F6702
:108650008D677B67696757674567336721670F6772
:10866000FC66EA66D866C666B366A1668F667C66F7
:108670006A6657664566326620660D66FA65E86585
:10868000D565C265B0659D658A6577656465516528
:108690003E652B6518650565F264DF64CC64B964DA
:1086A000A56492647F646C645864456431641E649C
:1086B0000A64F763E363D063BC63A8639563816373
:1086C0006D635963466332631E630A63F662E26256
:1086D000CE62BA62A56291627D6269625462406252
:1086E0002C6217620362EE61DA61C561B1619C615F
:1086F000876173615E61496134611F610A61F56080
:10870000E060CB60B660A1608C60776062604C60B6
:10871000376022600C60F75FE15FCC5FB65FA15FFE
:108720008B5F755F5F5F4A5F345F1E5F085FF25E5D
:10873000DC5EC65EB05E9A5E845E6D5E575E415ED4
:108740002A5E145EFD5DE75DD05DBA5DA35D8C5D64
:10875000765D5F5D485D315D1A5D035DEC5CD55C07
:10876000BE5CA75C8F5C785C615C4A5C325C1B5CC5
:10877000035CEB5BD45BBC5BA45B8D5B755B5D5B9F
:10878000455B2D5B155BFD5AE55ACC5AB45A9C5A91
:10879000835A6B5A535A3A5A215A095AF059D7599F
:1087A000BF59A6598D5974595B59425928590F59C7
:1087B000F658DD58C358AA58905877585D58435812
:1087C0002A581058F657DC57C257A8578E57745777
:1087D00059573F5725570A57F056D556BB56A056FE
:1087E00085566A564F5634561956FE55E355C855A8
:1087F000AD55915576555A553F5523550755EC546F
:10880000D054B45498547C546054435427540B545B
:10881000EE53D253B55399537C535F534253255370
:108820000853EB52CE52B1529352765258523B52A9
:108830001D52FF51E251C451A651885169514B510B
:108840002D510E51F050D150B35094507550565098
:1088500037501850F94FDA4FBA4F9B4F7B4F5C4F50
:108860003C4F1C4FFC4EDC4EBC4E9C4E7B4E5B4E38
:108870003B4E1A4EF94DD84DB84D974D754D544D50
:10888000334D124DF04CCF4CAD4C8B4C694C474C9A
:10889000254C034CE04BBE4B9C4B794B564B334B1A
:1088A000104BED4ACA4AA74A834A604A3C4A184AD2
:1088B000F449D049AC49884963493F491A49F548C8
:1088C000D148AC48864861483C481648F147CB47F8
:1088D000A5477F47594732470C47E546BF4698466C
:1088E00071464A462246FB45D445AC4584455C4525
:1088F00034450C45E344BB44924469444044174426
:10890000ED43C4439A43704346431C43F242C7427B
:108910009D42724247421C42F141C54199416E411C
:1089200042411541E940BC40904063403640084018
:10893000DB3FAD3F7F3F513F233FF53EC63E973E75
:10894000683E393E093EDA3DAA3D7A3D493D193D32
:10895000E83CB73C863C553C233CF13BBF3B8D3B60
:108960005A3B283BF53AC13A8E3A5A3A263AF239FE
:10897000BE39893954391F39E938B3387D38473819
:108980001038DA37A2376B373337FB36C3368B36BE
:1089900052361936DF35A5356B353135F634BB34F3
:1089A000803444340834CC33903353331533D832C5
:1089B0009A325B321C32DD319E315E311E31DD3048
:1089C0009C305B301930D72F952F522F0E2FCB2E86
:1089D000862E422EFD2DB72D712D2B2DE42C9D2C96
:1089E000552C0D2CC42B7B2B312BE72A9C2A512A8A
:1089F000052AB9296C291E29D12882283328E32782
:108A000093274227F1269F264C26F925A525502598
:108A1000FB24A5244F24F7239F234723ED229322F1
:108A20003822DD2180212321C52066200620A61FB3
:108A3000451FE21E7F1E1B1EB61D501DE91C811C1A
:108A4000181CAF1B441BD81A6B1AFC198D191D1961
:108A5000AB183818C4174F17D9166116E8156D15DD
:108A6000F1147414F5137513F3127012EB116411F1
:108A7000DC105210C60F390FA90E180E840DEF0C22
:108A8000580CBE0B230B850AE40942099D08F50723
:108A90004B079E06EE053B058604CD0311035202EB
:108AA0009001CA0000000000018001800180028066
:108AB00002800380048005800680078009800A8088
:108AC0000C800E8010801280158017801A801D8007
:108AD0002080238026802A802D8031803580398037
:108AE0003D80428046804B80508055805A805F8018
:108AF00065806A80708076807C80828089808F80AB
:108B000096809D80A480AB80B280BA80C180C980ED
:108B1000D180D980E180EA80F280FB8004810D81E0
:108B200016811F81288132813C81468150815A8182
:108B300064816F81798184818F819A81A581B181DE
:108B4000BC81C881D481E081EC81F88105821182E9
:108B50001E822B8238824582528260826E827B82A4
:108B600089829782A682B482C282D182E082EF8219
:108B7000FE820D831D832C833C834C835C836C833A
:108B80007C838D839D83AE83BF83D083E183F28317
:108B900004841584278439844B845D846F848284A3
:108BA0009484A784BA84CD84E084F38407851A85ED
:108BB0002E85428556856A857F859385A885BC85E7
:108BC000D185E685FB85118626863C86518667869B
:108BD0007D869386A986C086D686ED8604871B8708
:108BE00032874987608778879087A787BF87D7872D
:108BF000EF8708882088398851886A8883889C880C
:108C0000B688CF88E88802891C89368950896A89A4
:108C100084899F89B989D489EF890A8A258A408AFB
:108C20005B8A778A938AAE8ACA8AE68A028B1E8B0F
:108C30003B8B578B748B918BAE8BCB8BE88B058CDE
:108C4000228C408C5E8C7B8C998CB78CD58CF48C70
:108C5000128D308D4F8D6E8D8D8DAC8DCB8DEA8DBF
:108C6000098E298E488E688E888EA88EC88EE88ED2
:108C7000088F298F498F6A8F8B8FAC8FCD8FEE8FA6
:108C80000F903090529073909590B790D990FB9040
:108C90001D913F9162918491A791CA91EC910F929D
:108CA0003292559279929C92C092E39207932B93C1
:108CB0004F9373939793BB93DF93049428944D94AD
:108CC00072949794BC94E19406952B955195769562
:108CD0009C95C295E7950D96339659968096A696E3
:108CE000CC96F3961997409767978E97B597DC9730
:108CF00003982A9852987998A198C998F098189949
:108D0000409968999099B999E199099A329A5A9A31
:108D1000839AAC9AD59AFE9A279B509B799BA29BEB
:108D2000CC9BF59B1F9C499C729C9C9CC69CF09C78
:108D30001A9D449D6F9D999DC39DEE9D189E439ED7
:108D40006E9E999EC49EEF9E1A9F459F709F9B9F0B
:108D5000C79FF29F1EA049A075A0A1A0CDA0F9A019
:108D600025A151A17DA1A9A1D5A102A22EA25BA2FC
:108D700087A2B4A2E1A20DA33AA367A394A3C1A3BF
:108D8000EEA31CA449A476A4A4A4D1A4FFA42CA55A
:108D90005AA588A5B5A5E3A511A63FA66DA69BA6D5
:108DA000CAA6F8A626A754A783A7B1A7E0A70EA82E
:108DB0003DA86CA89AA8C9A8F8A827A956A985A96A
:108DC000B4A9E3A913AA42AA71AAA0AAD0AAFFAA89
:108DD0002FAB5EAB8EABBEABEDAB1DAC4DAC7DAC8B
:108DE000ADACDDAC0DAD3DAD6DAD9DADCDADFDAD75
:108DF0002DAE5EAE8EAEBEAEEFAE1FAF50AF80AF4B
:108E0000B1AFE2AF12B043B074B0A4B0D5B006B108
:108E100037B168B199B1CAB1FBB12CB25DB28EB2B3
:108E2000BFB2F0B222B353B384B3B6B3E7B318B44E
:108E30004AB47BB4ADB4DEB410B541B573B5A4B5D6
:108E4000D6B507B639B66BB69DB6CEB600B732B753
:108E500064B795B7C7B7F9B72BB85DB88FB8C1B8C5
:108E6000F3B825B957B989B9BBB9EDB91FBA51BA29
:108E700083BAB5BAE7BA19BB4BBB7DBBB0BBE2BB8B
:108E800014BC46BC78BCAABCDDBC0FBD41BD73BDE3
:108E9000A5BDD8BD0ABE3CBE6EBEA1BED3BE05BF39
:108EA00037BF6ABF9CBFCEBF01C033C065C097C08B
:108EB000CAC0FCC02EC160C193C1C5C1F7C129C2DF
:108EC0005CC28EC2C0C2F2C224C357C389C3BBC333
:108ED000EDC31FC451C484C4B6C4E8C41AC54CC58C
:108EE0007EC5B0C5E2C514C646C678C6AAC6DCC6ED
:108EF0000EC740C772C7A4C7D6C708C83AC86CC84F
:108F00009DC8CFC801C933C964C996C9C8C9FAC9BF
:108F10002BCA5DCA8ECAC0CAF1CA23CB54CB86CB3A
:108F2000B7CBE9CB1ACC4BCC7DCCAECCDFCC11CDC2
:108F300042CD73CDA4CDD5CD06CE37CE68CE99CE59
:108F4000CACEFBCE2CCF5DCF8DCFBECFEFCF1FD003
:108F500050D081D0B1D0E2D012D143D173D1A3D1BE
:108F6000D4D104D234D264D294D2C4D2F4D224D391
:108F700054D384D3B4D3E4D314D443D473D4A3D478
:108F8000D2D402D531D561D590D5BFD5EED51ED678
:108F90004DD67CD6ABD6DAD609D738D767D795D792
:108FA000C4D7F3D721D850D87ED8ADD8DBD809D9CB
:108FB00037D966D994D9C2D9F0D91EDA4CDA79DA20
:108FC000A7DAD5DA02DB30DB5DDB8BDBB8DBE5DB98
:108FD00013DC40DC6DDC9ADCC7DCF4DC20DD4DDD2D
:108FE0007ADDA6DDD3DDFFDD2CDE58DE84DEB0DEEB
:108FF000DCDE08DF34DF60DF8CDFB8DFE3DF0FE0CB
:109000003AE066E091E0BCE0E7E012E13DE168E1D2
:1090100093E1BEE1E9E113E23EE268E292E2BDE201
:10902000E7E211E33BE365E38FE3B8E3E2E30CE45B
:1090300035E45FE488E4B1E4DAE403E52CE555E5E2
:109040007EE5A7E5CFE5F8E520E648E671E699E696
:10905000C1E6E9E611E738E760E788E7AFE7D7E779
:10906000FEE725E84CE873E89AE8C1E8E8E80EE98D
:1090700035E95BE981E9A8E9CEE9F4E91AEA3FEAD2
:1090800065EA8BEAB0EAD6EAFBEA20EB45EB6AEB4D
:109090008FEBB4EBD9EBFDEB22EC46EC6AEC8EECFB
:1090A000B2ECD6ECFAEC1EED41ED65ED88EDACEDE1
:1090B000CFEDF2ED15EE37EE5AEE7DEE9FEEC2EEFD
:1090C000E4EE06EF28EF4AEF6CEF8EEFAFEFD1EF53
:1090D000F2EF13F034F055F076F097F0B8F0D8F0E6
:1090E000F9F019F139F159F179F199F1B9F1D8F1B2
:1090F000F8F117F236F255F274F293F2B2F2D1F2BD
:10910000EFF20DF32CF34AF368F386F3A3F3C1F304
:10911000DFF3FCF319F436F453F470F48DF4AAF48D
:10912000C6F4E3F4FFF41BF537F553F56EF58AF555
:10913000A6F5C1F5DCF5F7F512F62DF648F662F660
:109140007DF697F6B1F6CBF6E5F6FFF619F732F7AE
:109150004BF765F77EF797F7B0F7C8F7E1F7F9F740
:1091600012F82AF842F85AF871F889F8A1F8B8F814
:10917000CFF8E6F8FDF814F92BF941F958F96EF932
:1091800084F99AF9B0F9C5F9DBF9F0F906FA1BFA96
:1091900030FA45FA59FA6EFA82FA97FAABFABFFA40
:1091A000D3FAE7FAFAFA0EFB21FB34FB47FB5AFB32
:1091B0006DFB7FFB92FBA4FBB6FBC8FBDAFBECFB71
:1091C000FDFB0FFC20FC31FC42FC53FC64FC74FCF6
:1091D00085FC95FCA5FCB5FCC5FCD5FCE4FCF4FCC9
:1091E00003FD12FD21FD30FD3FFD4DFD5BFD6AFDE0
:1091F00078FD86FD93FDA1FDAFFDBCFDC9FDD6FD4B
:10920000E3FDF0FDFCFD09FE15FE21FE2DFE39FEFD
:1092100045FE50FE5CFE67FE72FE7DFE88FE92FEFD
:109220009DFEA7FEB1FEBBFEC5FECFFED9FEE2FE4F
:10923000EBFEF4FEFDFE06FF0FFF17FF20FF28FFE9
:1092400030FF38FF40FF47FF4FFF56FF5DFF64FFD1
:109250006BFF72FF78FF7FFF85FF8BFF91FF97FF0A
:109260009CFFA2FFA7FFACFFB1FFB6FFBBFFBFFF94
:10927000C4FFC8FFCCFFD0FFD4FFD7FFDBFFDEFF6A
:10928000E1FFE4FFE7FFEAFFECFFEFFFF1FFF3FF91
:10929000F5FFF7FFF8FFFAFFFBFFFCFFFDFFFEFF06
:1092A000FFFFFFFF000000000000000000000100C1
:1092B0000100020003000400050006000800090088
:1092C0000B000D000F0011001400160019001C0007
:1092D0001F002200250029002C0030003400380037
:1092E0003C00410045004A004F00540059005E0018
:1092F000640069006F0075007B00810088008E00AB
:1093000095009C00A300AA00B100B900C000C800ED
:10931000D000D800E000E900F100FA0003010C01E0
:1093200015011E01270131013B0145014F01590182
:1093300063016E01780183018E019901A401B001DE
:10934000BB01C701D301DF01EB01F70104021002E9
:109350001D022A023702440251025F026D027A02A4
:1093600088029602A502B302C102D002DF02EE0219
:10937000FD020C031C032B033B034B035B036B033A
:109380007B038C039C03AD03BE03CF03E003F10317
:1093900003041404260438044A045C046E048104A3
:1093A0009304A604B904CC04DF04F20406051905ED
:1093B0002D054105550569057E059205A705BB05E7
:1093C000D005E505FA05100625063B06500666069B
:1093D0007C069206A806BF06D506EC0603071A0708
:1093E000310748075F0777078F07A607BE07D6072D
:1093F000EE0707081F0838085008690882089B080C
:10940000B508CE08E70801091B0935094F096909A4
:1094100083099E09B809D309EE09090A240A3F0AFB
:109420005A0A760A920AAD0AC90AE50A010B1D0B0F
:109430003A0B560B730B900BAD0BCA0BE70B040CDE
:10944000210C3F0C5D0C7A0C980CB60CD40CF30C70
:10945000110D2F0D4E0D6D0D8C0DAB0DCA0DE90DBF
:10946000080E280E470E670E870EA70EC70EE70ED2
:10947000070F280F480F690F8A0FAB0FCC0FED0FA6
:109480000E102F10511072109410B610D810FA1040
:109490001C113E1161118311A611C911EB110E129D
:1094A0003112541278129B12BF12E21206132A13C1
:1094B0004E1372139613BA13DE13031427144C14AD
:1094C00071149614BB14E01405152A155015751562
:1094D0009B15C115E6150C16321658167F16A516E3
:1094E000CB16F21618173F1766178D17B417DB1730
:1094F0000218291851187818A018C818EF18171949
:109500003F1967198F19B819E019081A311A591A31
:10951000821AAB1AD41AFD1A261B4F1B781BA11BEB
:10952000CB1BF41B1E1C481C711C9B1CC51CEF1C78
:10953000191D431D6E1D981DC21DED1D171E421ED7
:109540006D1E981EC31EEE1E191F441F6F1F9A1F0B
:10955000C61FF11F1D2048207420A020CC20F82019
:10956000242150217C21A821D42101222D225A22FC
:109570008622B322E0220C23392366239323C023BF
:10958000ED231B2448247524A324D024FE242B255A
:1095900059258725B425E22510263E266C269A26D5
:1095A000C926F726252753278227B027DF270D282E
:1095B0003C286B289928C828F7282629552984296A
:1095C000B329E229122A412A702A9F2ACF2AFE2A89
:1095D0002E2B5D2B8D2BBD2BEC2B1C2C4C2C7C2C8B
:1095E000AC2CDC2C0C2D3C2D6C2D9C2DCC2DFC2D75
:1095F0002C2E5D2E8D2EBD2EEE2E1E2F4F2F7F2F4B
:10960000B02FE12F113042307330A330D430053108
:10961000363167319831C931FA312B325C328D32B3
:10962000BE32EF32213352338333B533E63317344E
:1096300049347A34AC34DD340F3540357235A335D6
:10964000D535063638366A369C36CD36FF36313754
:1096500063379437C637F8372A385C388E38C038C5
:10966000F238243956398839BA39EC391E3A503A29
:10967000823AB43AE63A183B4A3B7C3BAF3BE13B8B
:10968000133C453C773CA93CDC3C0E3D403D723DE3
:10969000A43DD73D093E3B3E6D3EA03ED23E043F39
:1096A000363F693F9B3FCD3FFF3F3240644096408D
:1096B000C940FB402D415F419241C441F6412842DF
:1096C0005B428D42BF42F142234356438843BA4333
:1096D000EC431E4450448344B544E74419454B458C
:1096E0007D45AF45E145134645467746A946DB46ED
:1096F0000D473F477147A347D547074839486B484F
:109700009C48CE480049324963499549C749F949BF
:109710002A4A5C4A8D4ABF4AF04A224B534B854B3A
:10972000B64BE84B194C4A4C7C4CAD4CDE4C104DC2
:10973000414D724DA34DD44D054E364E674E984E59
:10974000C94EFA4E2B4F5C4F8C4FBD4FEE4F1E5003
:109750004F508050B050E150115142517251A251BE
:10976000D3510352335263529352C352F352235391
:1097700053538353B353E353135442547254A25478
:10978000D1540155305560558F55BE55ED551D5678
:109790004C567B56AA56D956085737576657945792
:1097A000C357F25720584F587D58AC58DA580859CB
:1097B000365965599359C159EF591D5A4B5A785A20
:1097C000A65AD45A015B2F5B5C5B8A5BB75BE45B98
:1097D000125C3F5C6C5C995CC65CF35C1F5D4C5D2D
:1097E000795DA55DD25DFE5D2B5E575E835EAF5EEB
:1097F000DB5E075F335F5F5F8B5FB75FE25F0E60CB
:10980000396065609060BB60E66011613C616761D2
:109810009261BD61E86112623D6267629162BC6201
:10982000E66210633A6364638E63B763E1630B645B
:1098300034645E648764B064D96402652B655465E2
:109840007D65A665CE65F7651F6647667066986696
:10985000C066E866106737675F678767AE67D66779
:10986000FD6724684B6872689968C068E7680D698D
:1098700034695A698069A769CD69F369196A3E6AD2
:10988000646A8A6AAF6AD56AFA6A1F6B446B696B4D
:109890008E6BB36BD86BFC6B216C456C696C8D6CFB
:1098A000B16CD56CF96C1D6D406D646D876DAB6DE1
:1098B000CE6DF16D146E366E596E7C6E9E6EC16EFD
:1098C000E36E056F276F496F6B6F8D6FAE6FD06F53
:1098D000F16F12703370547075709670B770D770E6
:1098E000F87018713871587178719871B871D771B2
:1098F000F77116723572547273729272B172D072BD
:10990000EE720C732B73497367738573A273C07304
:10991000DE73FB731874357452746F748C74A9748D
:10992000C574E274FE741A75367552756D75897555
:10993000A575C075DB75F67511762C764776617660
:109940007C769676B076CA76E476FE7618773177AE
:109950004A7764777D779677AF77C777E077F87740
:10996000117829784178597870788878A078B77814
:10997000CE78E578FC7813792A79407957796D7932
:1099800083799979AF79C479DA79EF79057A1A7A96
:109990002F7A447A587A6D7A817A967AAA7ABE7A40
:1099A000D27AE67AF97A0D7B207B337B467B597B32
:1099B0006C7B7E7B917BA37BB57BC77BD97BEB7B71
:1099C000FC7B0E7C1F7C307C417C527C637C737CF6
:1099D000847C947CA47CB47CC47CD47CE37CF37CC9
:1099E000027D117D207D2F7D3E7D4C7D5A7D697DE0
:1099F000777D857D927DA07DAE7DBB7DC87DD57D4B
:109A0000E27DEF7DFB7D087E147E207E2C7E387EFD
:109A1000447E4F7E5B7E667E717E7C7E877E917EFD
:109A20009C7EA67EB07EBA7EC47ECE7ED87EE17E4F
:109A3000EA7EF37EFC7E057F0E7F167F1F7F277FE9
:109A40002F7F377F3F7F467F4E7F557F5C7F637FD1
:109A50006A7F717F777F7E7F847F8A7F907F967F0A
:109A60009B7FA17FA67FAB7FB07FB57FBA7FBE7F94
:109A7000C37FC77FCB7FCF7FD37FD67FDA7FDD7F6A
:109A8000E07FE37FE67FE97FEB7FEE7FF07FF27F91
:109A9000F47FF67FF77FF97FFA7FFB7FFC7FFD7F06
:109AA000FE7FFE7FFF7FFF7FFF7F00000180218020
:109AB000418061808180A180C180E180018121811C
:109AC000418161818181A181C181E1810182218204
:109AD000418261828182A182C182E18201832183EC
